{
  "_format": "hh-sol-artifact-1",
  "contractName": "Insurance",
  "sourceName": "contracts/insurance.sol",
  "abi": [
    {
      "inputs": [],
      "stateMutability": "nonpayable",
      "type": "constructor"
    },
    {
      "inputs": [
        {
          "internalType": "address",
          "name": "_user",
          "type": "address"
        },
        {
          "internalType": "uint256",
          "name": "_index",
          "type": "uint256"
        }
      ],
      "name": "acceptClaim",
      "outputs": [],
      "stateMutability": "nonpayable",
      "type": "function"
    },
    {
      "inputs": [
        {
          "internalType": "address",
          "name": "",
          "type": "address"
        },
        {
          "internalType": "uint256",
          "name": "",
          "type": "uint256"
        }
      ],
      "name": "claims",
      "outputs": [
        {
          "internalType": "uint256",
          "name": "amount",
          "type": "uint256"
        },
        {
          "internalType": "string",
          "name": "description",
          "type": "string"
        },
        {
          "internalType": "bool",
          "name": "accepted",
          "type": "bool"
        },
        {
          "internalType": "bool",
          "name": "exists",
          "type": "bool"
        },
        {
          "internalType": "string",
          "name": "fileHash",
          "type": "string"
        }
      ],
      "stateMutability": "view",
      "type": "function"
    },
    {
      "inputs": [],
      "name": "coverageAmount",
      "outputs": [
        {
          "internalType": "uint256",
          "name": "",
          "type": "uint256"
        }
      ],
      "stateMutability": "view",
      "type": "function"
    },
    {
      "inputs": [
        {
          "internalType": "address",
          "name": "_user",
          "type": "address"
        },
        {
          "internalType": "uint256",
          "name": "_index",
          "type": "uint256"
        }
      ],
      "name": "declineClaim",
      "outputs": [],
      "stateMutability": "nonpayable",
      "type": "function"
    },
    {
      "inputs": [],
      "name": "filehash",
      "outputs": [
        {
          "internalType": "string",
          "name": "",
          "type": "string"
        }
      ],
      "stateMutability": "view",
      "type": "function"
    },
    {
      "inputs": [
        {
          "internalType": "address",
          "name": "_user",
          "type": "address"
        },
        {
          "internalType": "uint256",
          "name": "_index",
          "type": "uint256"
        }
      ],
      "name": "getFileHash",
      "outputs": [
        {
          "internalType": "string",
          "name": "",
          "type": "string"
        }
      ],
      "stateMutability": "view",
      "type": "function"
    },
    {
      "inputs": [],
      "name": "insurer",
      "outputs": [
        {
          "internalType": "address",
          "name": "",
          "type": "address"
        }
      ],
      "stateMutability": "view",
      "type": "function"
    },
    {
      "inputs": [
        {
          "internalType": "uint256",
          "name": "_amount",
          "type": "uint256"
        },
        {
          "internalType": "string",
          "name": "_description",
          "type": "string"
        },
        {
          "internalType": "string",
          "name": "_fileHash",
          "type": "string"
        }
      ],
      "name": "makeClaim",
      "outputs": [],
      "stateMutability": "nonpayable",
      "type": "function"
    },
    {
      "inputs": [
        {
          "internalType": "string",
          "name": "_policyID",
          "type": "string"
        },
        {
          "internalType": "string",
          "name": "_policyName",
          "type": "string"
        },
        {
          "internalType": "string",
          "name": "_filehash",
          "type": "string"
        },
        {
          "internalType": "uint256",
          "name": "_coverageAmount",
          "type": "uint256"
        },
        {
          "internalType": "uint256",
          "name": "_premiumAmount",
          "type": "uint256"
        },
        {
          "internalType": "uint256",
          "name": "_policyDuration",
          "type": "uint256"
        }
      ],
      "name": "makePolicy",
      "outputs": [],
      "stateMutability": "nonpayable",
      "type": "function"
    },
    {
      "inputs": [
        {
          "internalType": "address",
          "name": "",
          "type": "address"
        },
        {
          "internalType": "uint256",
          "name": "",
          "type": "uint256"
        }
      ],
      "name": "policies",
      "outputs": [
        {
          "internalType": "string",
          "name": "policyID",
          "type": "string"
        },
        {
          "internalType": "string",
          "name": "policyName",
          "type": "string"
        },
        {
          "internalType": "string",
          "name": "filehash",
          "type": "string"
        },
        {
          "internalType": "uint256",
          "name": "coverageAmount",
          "type": "uint256"
        },
        {
          "internalType": "uint256",
          "name": "premiumAmount",
          "type": "uint256"
        },
        {
          "internalType": "uint256",
          "name": "policyDuration",
          "type": "uint256"
        }
      ],
      "stateMutability": "view",
      "type": "function"
    },
    {
      "inputs": [],
      "name": "policyDuration",
      "outputs": [
        {
          "internalType": "uint256",
          "name": "",
          "type": "uint256"
        }
      ],
      "stateMutability": "view",
      "type": "function"
    },
    {
      "inputs": [],
      "name": "policyName",
      "outputs": [
        {
          "internalType": "string",
          "name": "",
          "type": "string"
        }
      ],
      "stateMutability": "view",
      "type": "function"
    },
    {
      "inputs": [],
      "name": "premiumAmount",
      "outputs": [
        {
          "internalType": "uint256",
          "name": "",
          "type": "uint256"
        }
      ],
      "stateMutability": "view",
      "type": "function"
    },
    {
      "inputs": [],
      "name": "subscribe",
      "outputs": [],
      "stateMutability": "payable",
      "type": "function"
    },
    {
      "inputs": [
        {
          "internalType": "address",
          "name": "",
          "type": "address"
        }
      ],
      "name": "subscribed",
      "outputs": [
        {
          "internalType": "bool",
          "name": "",
          "type": "bool"
        }
      ],
      "stateMutability": "view",
      "type": "function"
    }
  ],
  "bytecode": "0x608060405234801561001057600080fd5b50336000806101000a81548173ffffffffffffffffffffffffffffffffffffffff021916908373ffffffffffffffffffffffffffffffffffffffff1602179055506121d1806100606000396000f3fe6080604052600436106100e85760003560e01c806390b4f12b1161008a578063d18d69af11610059578063d18d69af146102cc578063dbc837c514610309578063dc39764b14610334578063fdb850481461035d576100e8565b806390b4f12b146101f557806398f04b8214610237578063a2c12cd814610260578063ab541a851461028b576100e8565b806365de97a6116100c657806365de97a61461016a57806367c0d00f146101955780636bb1605b146101c05780638f449a05146101eb576100e8565b80631b3d1b97146100ed5780632b8dd2ae1461011657806344530f3a1461013f575b600080fd5b3480156100f957600080fd5b50610114600480360381019061010f91906114e3565b61039a565b005b34801561012257600080fd5b5061013d600480360381019061013891906114e3565b610606565b005b34801561014b57600080fd5b5061015461091b565b6040516101619190611532565b60405180910390f35b34801561017657600080fd5b5061017f610921565b60405161018c91906115dd565b60405180910390f35b3480156101a157600080fd5b506101aa6109af565b6040516101b79190611532565b60405180910390f35b3480156101cc57600080fd5b506101d56109b5565b6040516101e291906115dd565b60405180910390f35b6101f3610a43565b005b34801561020157600080fd5b5061021c600480360381019061021791906114e3565b610ae1565b60405161022e969594939291906115ff565b60405180910390f35b34801561024357600080fd5b5061025e600480360381019061025991906117aa565b610cd2565b005b34801561026c57600080fd5b50610275610e5f565b6040516102829190611532565b60405180910390f35b34801561029757600080fd5b506102b260048036038101906102ad91906114e3565b610e65565b6040516102c39594939291906118a6565b60405180910390f35b3480156102d857600080fd5b506102f360048036038101906102ee9190611907565b610fe2565b6040516103009190611934565b60405180910390f35b34801561031557600080fd5b5061031e611002565b60405161032b919061195e565b60405180910390f35b34801561034057600080fd5b5061035b60048036038101906103569190611979565b611026565b005b34801561036957600080fd5b50610384600480360381019061037f91906114e3565b611209565b60405161039191906115dd565b60405180910390f35b60008054906101000a900473ffffffffffffffffffffffffffffffffffffffff1673ffffffffffffffffffffffffffffffffffffffff163373ffffffffffffffffffffffffffffffffffffffff1614610428576040517f08c379a000000000000000000000000000000000000000000000000000000000815260040161041f90611a76565b60405180910390fd5b600760008373ffffffffffffffffffffffffffffffffffffffff1673ffffffffffffffffffffffffffffffffffffffff168152602001908152602001600020818154811061047957610478611a96565b5b906000526020600020906004020160020160019054906101000a900460ff166104d7576040517f08c379a00000000000000000000000000000000000000000000000000000000081526004016104ce90611b11565b60405180910390fd5b600760008373ffffffffffffffffffffffffffffffffffffffff1673ffffffffffffffffffffffffffffffffffffffff168152602001908152602001600020818154811061052857610527611a96565b5b906000526020600020906004020160020160009054906101000a900460ff1615610587576040517f08c379a000000000000000000000000000000000000000000000000000000000815260040161057e90611b7d565b60405180910390fd5b6000600760008473ffffffffffffffffffffffffffffffffffffffff1673ffffffffffffffffffffffffffffffffffffffff16815260200190815260200160002082815481106105da576105d9611a96565b5b906000526020600020906004020160020160006101000a81548160ff0219169083151502179055505050565b60008054906101000a900473ffffffffffffffffffffffffffffffffffffffff1673ffffffffffffffffffffffffffffffffffffffff163373ffffffffffffffffffffffffffffffffffffffff1614610694576040517f08c379a000000000000000000000000000000000000000000000000000000000815260040161068b90611c0f565b60405180910390fd5b600760008373ffffffffffffffffffffffffffffffffffffffff1673ffffffffffffffffffffffffffffffffffffffff16815260200190815260200160002081815481106106e5576106e4611a96565b5b906000526020600020906004020160020160019054906101000a900460ff16610743576040517f08c379a000000000000000000000000000000000000000000000000000000000815260040161073a90611b11565b60405180910390fd5b600760008373ffffffffffffffffffffffffffffffffffffffff1673ffffffffffffffffffffffffffffffffffffffff168152602001908152602001600020818154811061079457610793611a96565b5b906000526020600020906004020160020160009054906101000a900460ff16156107f3576040517f08c379a00000000000000000000000000000000000000000000000000000000081526004016107ea90611b7d565b60405180910390fd5b6001600760008473ffffffffffffffffffffffffffffffffffffffff1673ffffffffffffffffffffffffffffffffffffffff168152602001908152602001600020828154811061084657610845611a96565b5b906000526020600020906004020160020160006101000a81548160ff0219169083151502179055508173ffffffffffffffffffffffffffffffffffffffff166108fc600760008573ffffffffffffffffffffffffffffffffffffffff1673ffffffffffffffffffffffffffffffffffffffff16815260200190815260200160002083815481106108d9576108d8611a96565b5b9060005260206000209060040201600001549081150290604051600060405180830381858888f19350505050158015610916573d6000803e3d6000fd5b505050565b60045481565b6001805461092e90611c5e565b80601f016020809104026020016040519081016040528092919081815260200182805461095a90611c5e565b80156109a75780601f1061097c576101008083540402835291602001916109a7565b820191906000526020600020905b81548152906001019060200180831161098a57829003601f168201915b505050505081565b60035481565b600280546109c290611c5e565b80601f01602080910402602001604051908101604052809291908181526020018280546109ee90611c5e565b8015610a3b5780601f10610a1057610100808354040283529160200191610a3b565b820191906000526020600020905b815481529060010190602001808311610a1e57829003601f168201915b505050505081565b6004543414610a87576040517f08c379a0000000000000000000000000000000000000000000000000000000008152600401610a7e90611cdb565b60405180910390fd5b6001600660003373ffffffffffffffffffffffffffffffffffffffff1673ffffffffffffffffffffffffffffffffffffffff16815260200190815260200160002060006101000a81548160ff021916908315150217905550565b60086020528160005260406000208181548110610afd57600080fd5b906000526020600020906006020160009150915050806000018054610b2190611c5e565b80601f0160208091040260200160405190810160405280929190818152602001828054610b4d90611c5e565b8015610b9a5780601f10610b6f57610100808354040283529160200191610b9a565b820191906000526020600020905b815481529060010190602001808311610b7d57829003601f168201915b505050505090806001018054610baf90611c5e565b80601f0160208091040260200160405190810160405280929190818152602001828054610bdb90611c5e565b8015610c285780601f10610bfd57610100808354040283529160200191610c28565b820191906000526020600020905b815481529060010190602001808311610c0b57829003601f168201915b505050505090806002018054610c3d90611c5e565b80601f0160208091040260200160405190810160405280929190818152602001828054610c6990611c5e565b8015610cb65780601f10610c8b57610100808354040283529160200191610cb6565b820191906000526020600020905b815481529060010190602001808311610c9957829003601f168201915b5050505050908060030154908060040154908060050154905086565b60008054906101000a900473ffffffffffffffffffffffffffffffffffffffff1673ffffffffffffffffffffffffffffffffffffffff163373ffffffffffffffffffffffffffffffffffffffff1614610d60576040517f08c379a0000000000000000000000000000000000000000000000000000000008152600401610d5790611d47565b60405180910390fd5b600860003373ffffffffffffffffffffffffffffffffffffffff1673ffffffffffffffffffffffffffffffffffffffff1681526020019081526020016000206040518060c001604052808881526020018781526020018681526020018581526020018481526020018381525090806001815401808255809150506001900390600052602060002090600602016000909190919091506000820151816000019081610e0a9190611f13565b506020820151816001019081610e209190611f13565b506040820151816002019081610e369190611f13565b50606082015181600301556080820151816004015560a082015181600501555050505050505050565b60055481565b60076020528160005260406000208181548110610e8157600080fd5b906000526020600020906004020160009150915050806000015490806001018054610eab90611c5e565b80601f0160208091040260200160405190810160405280929190818152602001828054610ed790611c5e565b8015610f245780601f10610ef957610100808354040283529160200191610f24565b820191906000526020600020905b815481529060010190602001808311610f0757829003601f168201915b5050505050908060020160009054906101000a900460ff16908060020160019054906101000a900460ff1690806003018054610f5f90611c5e565b80601f0160208091040260200160405190810160405280929190818152602001828054610f8b90611c5e565b8015610fd85780601f10610fad57610100808354040283529160200191610fd8565b820191906000526020600020905b815481529060010190602001808311610fbb57829003601f168201915b5050505050905085565b60066020528060005260406000206000915054906101000a900460ff1681565b60008054906101000a900473ffffffffffffffffffffffffffffffffffffffff1681565b600660003373ffffffffffffffffffffffffffffffffffffffff1673ffffffffffffffffffffffffffffffffffffffff16815260200190815260200160002060009054906101000a900460ff166110b2576040517f08c379a00000000000000000000000000000000000000000000000000000000081526004016110a990612057565b60405180910390fd5b6003548311156110f7576040517f08c379a00000000000000000000000000000000000000000000000000000000081526004016110ee906120e9565b60405180910390fd5b600760003373ffffffffffffffffffffffffffffffffffffffff1673ffffffffffffffffffffffffffffffffffffffff1681526020019081526020016000206040518060a001604052808581526020018481526020016000151581526020016001151581526020018381525090806001815401808255809150506001900390600052602060002090600402016000909190919091506000820151816000015560208201518160010190816111ab9190611f13565b5060408201518160020160006101000a81548160ff02191690831515021790555060608201518160020160016101000a81548160ff02191690831515021790555060808201518160030190816112019190611f13565b505050505050565b606060008054906101000a900473ffffffffffffffffffffffffffffffffffffffff1673ffffffffffffffffffffffffffffffffffffffff163373ffffffffffffffffffffffffffffffffffffffff1614611299576040517f08c379a00000000000000000000000000000000000000000000000000000000081526004016112909061217b565b60405180910390fd5b600760008473ffffffffffffffffffffffffffffffffffffffff1673ffffffffffffffffffffffffffffffffffffffff16815260200190815260200160002082815481106112ea576112e9611a96565b5b906000526020600020906004020160020160019054906101000a900460ff16611348576040517f08c379a000000000000000000000000000000000000000000000000000000000815260040161133f90611b11565b60405180910390fd5b600760008473ffffffffffffffffffffffffffffffffffffffff1673ffffffffffffffffffffffffffffffffffffffff168152602001908152602001600020828154811061139957611398611a96565b5b906000526020600020906004020160030180546113b590611c5e565b80601f01602080910402602001604051908101604052809291908181526020018280546113e190611c5e565b801561142e5780601f106114035761010080835404028352916020019161142e565b820191906000526020600020905b81548152906001019060200180831161141157829003601f168201915b5050505050905092915050565b6000604051905090565b600080fd5b600080fd5b600073ffffffffffffffffffffffffffffffffffffffff82169050919050565b600061147a8261144f565b9050919050565b61148a8161146f565b811461149557600080fd5b50565b6000813590506114a781611481565b92915050565b6000819050919050565b6114c0816114ad565b81146114cb57600080fd5b50565b6000813590506114dd816114b7565b92915050565b600080604083850312156114fa576114f9611445565b5b600061150885828601611498565b9250506020611519858286016114ce565b9150509250929050565b61152c816114ad565b82525050565b60006020820190506115476000830184611523565b92915050565b600081519050919050565b600082825260208201905092915050565b60005b8381101561158757808201518184015260208101905061156c565b60008484015250505050565b6000601f19601f8301169050919050565b60006115af8261154d565b6115b98185611558565b93506115c9818560208601611569565b6115d281611593565b840191505092915050565b600060208201905081810360008301526115f781846115a4565b905092915050565b600060c082019050818103600083015261161981896115a4565b9050818103602083015261162d81886115a4565b9050818103604083015261164181876115a4565b90506116506060830186611523565b61165d6080830185611523565b61166a60a0830184611523565b979650505050505050565b600080fd5b600080fd5b7f4e487b7100000000000000000000000000000000000000000000000000000000600052604160045260246000fd5b6116b782611593565b810181811067ffffffffffffffff821117156116d6576116d561167f565b5b80604052505050565b60006116e961143b565b90506116f582826116ae565b919050565b600067ffffffffffffffff8211156117155761171461167f565b5b61171e82611593565b9050602081019050919050565b82818337600083830152505050565b600061174d611748846116fa565b6116df565b9050828152602081018484840111156117695761176861167a565b5b61177484828561172b565b509392505050565b600082601f83011261179157611790611675565b5b81356117a184826020860161173a565b91505092915050565b60008060008060008060c087890312156117c7576117c6611445565b5b600087013567ffffffffffffffff8111156117e5576117e461144a565b5b6117f189828a0161177c565b965050602087013567ffffffffffffffff8111156118125761181161144a565b5b61181e89828a0161177c565b955050604087013567ffffffffffffffff81111561183f5761183e61144a565b5b61184b89828a0161177c565b945050606061185c89828a016114ce565b935050608061186d89828a016114ce565b92505060a061187e89828a016114ce565b9150509295509295509295565b60008115159050919050565b6118a08161188b565b82525050565b600060a0820190506118bb6000830188611523565b81810360208301526118cd81876115a4565b90506118dc6040830186611897565b6118e96060830185611897565b81810360808301526118fb81846115a4565b90509695505050505050565b60006020828403121561191d5761191c611445565b5b600061192b84828501611498565b91505092915050565b60006020820190506119496000830184611897565b92915050565b6119588161146f565b82525050565b6000602082019050611973600083018461194f565b92915050565b60008060006060848603121561199257611991611445565b5b60006119a0868287016114ce565b935050602084013567ffffffffffffffff8111156119c1576119c061144a565b5b6119cd8682870161177c565b925050604084013567ffffffffffffffff8111156119ee576119ed61144a565b5b6119fa8682870161177c565b9150509250925092565b7f4f6e6c792074686520696e73757265722063616e206465636c696e6520636c6160008201527f696d730000000000000000000000000000000000000000000000000000000000602082015250565b6000611a60602383611558565b9150611a6b82611a04565b604082019050919050565b60006020820190508181036000830152611a8f81611a53565b9050919050565b7f4e487b7100000000000000000000000000000000000000000000000000000000600052603260045260246000fd5b7f436c61696d20646f6573206e6f74206578697374000000000000000000000000600082015250565b6000611afb601483611558565b9150611b0682611ac5565b602082019050919050565b60006020820190508181036000830152611b2a81611aee565b9050919050565b7f436c61696d2068617320616c7265616479206265656e20616363657074656400600082015250565b6000611b67601f83611558565b9150611b7282611b31565b602082019050919050565b60006020820190508181036000830152611b9681611b5a565b9050919050565b7f4f6e6c792074686520696e73757265722063616e2061636365707420636c616960008201527f6d73000000000000000000000000000000000000000000000000000000000000602082015250565b6000611bf9602283611558565b9150611c0482611b9d565b604082019050919050565b60006020820190508181036000830152611c2881611bec565b9050919050565b7f4e487b7100000000000000000000000000000000000000000000000000000000600052602260045260246000fd5b60006002820490506001821680611c7657607f821691505b602082108103611c8957611c88611c2f565b5b50919050565b7f496e636f7272656374207072656d69756d20616d6f756e740000000000000000600082015250565b6000611cc5601883611558565b9150611cd082611c8f565b602082019050919050565b60006020820190508181036000830152611cf481611cb8565b9050919050565b7f4f6e6c7920496e73757265722063616e206d616b6520506f6c69636965730000600082015250565b6000611d31601e83611558565b9150611d3c82611cfb565b602082019050919050565b60006020820190508181036000830152611d6081611d24565b9050919050565b60008190508160005260206000209050919050565b60006020601f8301049050919050565b600082821b905092915050565b600060088302611dc97fffffffffffffffffffffffffffffffffffffffffffffffffffffffffffffffff82611d8c565b611dd38683611d8c565b95508019841693508086168417925050509392505050565b6000819050919050565b6000611e10611e0b611e06846114ad565b611deb565b6114ad565b9050919050565b6000819050919050565b611e2a83611df5565b611e3e611e3682611e17565b848454611d99565b825550505050565b600090565b611e53611e46565b611e5e818484611e21565b505050565b5b81811015611e8257611e77600082611e4b565b600181019050611e64565b5050565b601f821115611ec757611e9881611d67565b611ea184611d7c565b81016020851015611eb0578190505b611ec4611ebc85611d7c565b830182611e63565b50505b505050565b600082821c905092915050565b6000611eea60001984600802611ecc565b1980831691505092915050565b6000611f038383611ed9565b9150826002028217905092915050565b611f1c8261154d565b67ffffffffffffffff811115611f3557611f3461167f565b5b611f3f8254611c5e565b611f4a828285611e86565b600060209050601f831160018114611f7d5760008415611f6b578287015190505b611f758582611ef7565b865550611fdd565b601f198416611f8b86611d67565b60005b82811015611fb357848901518255600182019150602085019450602081019050611f8e565b86831015611fd05784890151611fcc601f891682611ed9565b8355505b6001600288020188555050505b505050505050565b7f55736572206973206e6f74207375627363726962656420746f2074686973207060008201527f6f6c696379000000000000000000000000000000000000000000000000000000602082015250565b6000612041602583611558565b915061204c82611fe5565b604082019050919050565b6000602082019050818103600083015261207081612034565b9050919050565b7f436c61696d20616d6f756e74206578636565647320636f76657261676520616d60008201527f6f756e7400000000000000000000000000000000000000000000000000000000602082015250565b60006120d3602483611558565b91506120de82612077565b604082019050919050565b60006020820190508181036000830152612102816120c6565b9050919050565b7f4f6e6c792074686520696e73757265722063616e20676574207468652066696c60008201527f6520686173680000000000000000000000000000000000000000000000000000602082015250565b6000612165602683611558565b915061217082612109565b604082019050919050565b6000602082019050818103600083015261219481612158565b905091905056fea26469706673582212206477bee0292deac1acfc61f73b0176003ef86327ac5f8ef1d0ad57cde3ac587264736f6c63430008120033",
  "linkReferences": {},
  "deployedLinkReferences": {}
}